:020000040800F2
:10C000000004001011FE00082DFE000831FE00089B
:10C0100035FE000839FE00083DFE00080000000063
:10C0200000000000000000000000000041FE0008C9
:10C0300045FE00080000000049FE00084DFE000813
:10C0400051FE000855FE000859FE00085DFE00087C
:10C0500061FE000865FE000869FE00086DFE00082C
:10C0600071FE000875FE000879FE00087DFE0008DC
:10C0700081FE000885FE000889FE00088DFE00088C
:10C0800091FE000895FE000899FE00089DFE00083C
:10C09000A1FE0008A5FE0008A9FE0008ADFE0008EC
:10C0A000B1FE0008B5FE0008B9FE0008BDFE00089C
:10C0B000C1FE0008C5E00008C5FE0008C9FE000872
:10C0C000CDFE0008D1FE0008D5FE0008D9FE00080C
:10C0D000DDFE0008E1FE0008E5FE0008C3F00008F0
:10C0E000E9FE0008EDFE0008F1FE0008F5FE00087C
:10C0F000F9FE0008FDFE000801FF000805FF00082A
:10C1000009FF00080DFF000811FF000815FF0008D7
:10C1100019FF00081DFF000821FF000825FF000887
:10C1200029FF00082DFF000831FF000835FF000837
:10C1300039FF00083DFF000841FF000845FF0008E7
:10C1400049FF00084DFF000851FF000855FF000897
:10C1500059FF00085DFF000861FF000865FF000847
:10C1600069FF00086DFF000871FF000875FF0008F7
:10C1700079FF00087DFF000881FF000885FF0008A7
:10C1800089FF00088DFF00082DE9F843334800219E
:10C190000180012181703249416032498160324918
:10C1A000C1600121018780F83A1000F13C012F4A5B
:10C1B0000A609FED280A81ED010ADFED270AC1ED33
:10C1C000020A02228A86012180F8721000F17401AD
:10C1D000274A0A60274A4A60274A8A6003228A86D9
:10C1E000012180F8AA1000F1AC01244A0A604FF046
:10C1F00081424A60C1ED020A04228A86012180F848
:10C20000E21000F1E401C1ED000A81ED010AC1ED87
:10C21000020A05228A86012180F81A1100F58E7122
:10C22000174A0A60174A4A60C1ED020A06228A8646
:10C23000012180F8521100F5AA71134A0A6081EDBC
:10C24000010AC1ED020A00210A46104C0C2500F03B
:10C250008ABF00BF3333B33FCDCC0C40D84A002057
:10C26000333393406666464052B85E3FCDCC9C4027
:10C270005C8FA23FAE47613EEC51B83F3333134071
:10C28000CDCC6C409A9979409A99193F0842002088
:10C290005B1C1BB2072B80F261879942F8D005FB2B
:10C2A00002F6012704F1080C0CF80670382717FB7A
:10C2B00001FC844444F806C017FB03F7074404F16B
:10C2C000040C4CF80670521C6E2AE1DBDFF8D46BCC
:10C2D000DFF8D40B7060DFF8D80BB060DFF8D80B54
:10C2E000F060DFF8D80B3061DFF8D40BF067DFF8CF
:10C2F000D40BC6F8800006F18400DFF8CC1B016087
:10C30000DFF8C81B4160DFF8C81B0167DFF8C41BFA
:10C310004167DFF8C41B8167DFF8C01BC16706F502
:10C32000B670DFF8BC1B0160DFF8B81B4160DFF8B6
:10C33000B81B8160DFF8B41BC160DFF8B41B8167F4
:10C34000DFF8B01BC16706F5F670DFF8AC1B0160C3
:10C35000DFF8A81B4160DFF8A81B0167DFF8A41B0A
:10C360004167DFF8A41B8167DFF8A01BC16706F5F2
:10C370003570DFF89C1B0160DFF8981B4160DFF827
:10C38000981B8160DFF8941BC160DFF8941B816704
:10C39000DFF8901BC16706F55570DFF88C1B016054
:10C3A000DFF8881B4160DFF8881B0167DFF8841B1A
:10C3B0004167DFF8841B8167DFF8801BC16706F2E5
:10C3C0003C40DFF87C1B0160DFF8781B4160DFF840
:10C3D000781B8160DFF8741BC160DFF8741B816714
:10C3E000DFF8701BC16706F2BC40DFF86C1B016010
:10C3F000DFF8681B4160DFF8681B0167DFF8641B2A
:10C400004167DFF8641B8167DFF8601BC16706F2D4
:10C41000A450DFF85C1B0160DFF8581B4160DFF8B7
:10C42000581B8160DFF8541BC160DFF8541B816723
:10C43000DFF8501BC16706F22460DFF84C1B016077
:10C44000DFF8481B4160DFF8481B0167DFF8441B39
:10C450004167DFF8441B8167DFF8401BC16706F2C4
:10C460000C70DFF83C1B0160DFF8381B4160DFF81F
:10C47000381B8160DFF8341BC160DFF8341B816733
:10C48000DFF8301BC16706F28C70DFF82C1B0160EF
:10C49000DFF8281B4160DFF8281B0167DFF8241B49
:10C4A0004167DFF8241B8167DFF8201BC16706F6B0
:10C4B0007400DFF81C1B0160DFF8181B4160DFF817
:10C4C000181B8160DFF8141BC160DFF8141B816743
:10C4D000DFF8101BC16706F6F400DFF80C1B0160E3
:10C4E000DFF8081B4160DFF8081B0167DFF8041B59
:10C4F0004167DFF8041B8167DFF8001BC16706F6A0
:10C50000DC10DFF8FC1A0160DFF8F81A4160DFF890
:10C51000F81A8160DFF8F41AC160DFF8F41A816755
:10C52000DFF8F01AC16706F65C20DFF8EC1A01604C
:10C53000DFF8E81A4160DFF8E81A0167DFF8E41A6B
:10C540004167DFF8E41A8167DFF8E01AC16706F691
:10C5500044309FEDF10A80ED000ADFEDF00AC0EDF6
:10C56000010A9FEDEF1A80ED021ADFEDEE1AC0ED21
:10C57000031A80ED1E0AC0ED1F0A06F6C43080EDD6
:10C58000001AC0ED011A002184F83411DFF8A01A56
:10C590000167DFF8A01A4167DFF89C1A8167DFF8AE
:10C5A0009C1AC16706F6AC40DFF8941A0160DFF808
:10C5B000941A4160DFF8901A8160DFF8901AC16028
:10C5C000DFF88C1A8167DFF88C1AC16706F62C50E9
:10C5D000DFF8841A0160DFF8841A4160DFF8801AFE
:10C5E0000167DFF8801A4167DFF87C1A8167DFF89E
:10C5F0007C1AC16706F61460DFF8741A0160DFF870
:10C60000741A4160DFF8701A8160DFF8701AC16037
:10C61000DFF86C1A8167DFF86C1AC16706F6946060
:10C62000DFF8641A0160DFF8641A4160DFF8601A0D
:10C630000167DFF8601A4167DFF85C1A8167DFF88D
:10C640005C1AC16706F67C70DFF8541A0160DFF8E7
:10C65000541A4160DFF8501A8160DFF8501AC16047
:10C66000DFF84C1A8167DFF84C1AC16706F6FC70D8
:10C67000DFF8FC1A0160DFF8FC1A4160DFF8F81AF5
:10C680000167DFF8F81A4167DFF8F41A8167DFF80D
:10C69000F41AC16741F2E4003044DFF8EC1A01609B
:10C6A000DFF8E81A4160DFF8E81A8160DFF8E41A81
:10C6B000C160DFF8E41A8167DFF8E01AC16741F270
:10C6C00064103044DFF8D81A0160DFF8D81A4160EE
:10C6D000DFF8D41A0167DFF8D41A4167DFF8D01AFF
:10C6E0008167DFF8D01AC16741F24C203044DFF88F
:10C6F000C81A0160DFF8C41A4160DFF8C41A81600B
:10C70000DFF8C01AC160DFF8C01A8167DFF8BC1A11
:10C71000C16741F2CC203044DFF8B41A0160DFF881
:10C72000B41A4160DFF8B01A0167DFF8B01A416748
:10C73000DFF8AC1A8167DFF8AC1AC16741F2B43098
:10C740003044DFF8A41A0160DFF8A01A4160DFF876
:10C75000A01A8160DFF89C1AC160DFF89C1A81671B
:10C76000DFF8981AC16741F234403044DFF8901A7C
:10C770000160DFF8901A4160DFF88C1A0167DFF87A
:10C780008C1A4167DFF8881A8167DFF8881AC16759
:10C7900041F21C503044DFF8801A0160DFF87C1A47
:10C7A0004160DFF87C1A8160DFF8781AC160DFF839
:10C7B000781A8167DFF8741AC16741F29C503044DF
:10C7C000DFF86C1A0160DFF86C1A4160DFF8681A54
:10C7D0000167DFF8681A4167DFF8641A8167DFF8DC
:10C7E000641AC16741F284603044DFF85C1A01606A
:10C7F000DFF8581A4160DFF8581A8160DFF8541AE0
:10C80000C160DFF8541A8167DFF8501AC16741F23E
:10C8100004703044DFF8481A0160DFF8481A4160BC
:10C82000DFF8441A0167DFF8441A4167DFF8401A5D
:10C830008167DFF8401AC16741F2EC703044DFF8DD
:10C84000381A0160DFF8341A4160DFF8341A816069
:10C85000DFF8301AC160DFF8301A8167DFF82C1A70
:10C86000C16741F66C003044DFF8241A0160DFF83C
:10C87000241A4160DFF8201A0167DFF8201A4167A7
:10C88000DFF81C1A8167DFF81C1AC16741F65410E3
:10C890003044DFF8141A0160DFF8101A4160DFF845
:10C8A000101A8160DFF80C1AC160DFF80C1A81677A
:10C8B000DFF8081AC16741F6D4103044DFF8001AD7
:10C8C0000160DFF8001A4160DFF8FC190167DFF84A
:10C8D000FC194167DFF8F8198167DFF8F819C167BB
:10C8E00041F6BC203044DFF8F0190160DFF8EC19A4
:10C8F0004160DFF8EC198160DFF8E819C160DFF80A
:10C90000E8198167DFF8E419C16741F63C3030442B
:10C91000DFF8DC1908E000BF6BB6173B45F2493F72
:10C9200062147CBF14E20B450160DFF8C819416056
:10C93000DFF8C4190167DFF8C4194167DFF8C019CF
:10C940008167DFF8C019C16741F624403044DFF841
:10C95000B8190160DFF8B4194160DFF8B4198160DB
:10C96000DFF8B019C160DFF8B0198167DFF8AC19E2
:10C97000C16741F6A4403044DFF8A4190160DFF834
:10C98000A4194160DFF8A0190167DFF8A019416719
:10C99000DFF89C198167DFF89C19C16741F68C505C
:10C9A0003044DFF894190160DFF890194160DFF836
:10C9B00090198160DFF88C19C160DFF88C198167EC
:10C9C000DFF88819C16741F60C603044DFF8801940
:10C9D0000160DFF880194160DFF87C190167DFF83A
:10C9E0007C194167DFF878198167DFF87819C1672A
:10C9F00041F6F4603044DFF870190160DFF86C191B
:10CA00004160DFF86C198160DFF86819C160DFF8F8
:10CA100068198167DFF86419C16741F674703044A2
:10CA2000DFF85C190160DFF85C194160DFF8581924
:10CA30000167DFF858194167DFF854198167DFF89B
:10CA40005419C16742F25C003044DFF84C190160B0
:10CA5000DFF848194160DFF848198160DFF84419B0
:10CA6000C160DFF844198167DFF84019C16742F2FD
:10CA7000DC003044DFF838190160DFF83819416014
:10CA8000DFF834190167DFF834194167DFF830192E
:10CA90008167DFF83019C16742F2C4103044DFF813
:10CAA00028190160DFF824194160DFF8241981603A
:10CAB000DFF82019C160DFF820198167DFF81C1941
:10CAC000C16742F244203044DFF814190160DFF8F6
:10CAD00014194160DFF810190167DFF81019416778
:10CAE000DFF80C198167DFF80C19C16742F22C30AE
:10CAF0003044DFF804190160DFF800194160DFF805
:10CB000000198160DFF8FC18C160DFF8FC1881674C
:10CB1000DFF8F818C16742F2AC303044DFF8F018A3
:10CB20000160DFF8F0184160DFF8EC180167DFF80A
:10CB3000EC184167DFF8E8188167DFF8E818C1678B
:10CB400042F294403044DFF8E0180160DFF8DC186E
:10CB50004160DFF8DC188160DFF8D818C160DFF8C9
:10CB6000D8188167DFF8D418C16742F214503044F6
:10CB7000DFF8CC180160DFF8CC184160DFF8C81886
:10CB80000167DFF8C8184167DFF8C4188167DFF86C
:10CB9000C418C16742F2FC503044DFF8BC18016091
:10CBA000DFF8B8184160DFF8B8188160DFF8B41812
:10CBB000C160DFF8B4188167DFF8B018C16742F2CE
:10CBC0007C603044DFF8A8180160DFF8A8184160E5
:10CBD000DFF8A4180167DFF8A4184167DFF8A01890
:10CBE0008167DFF8A018C16742F264703044DFF853
:10CBF00098180160DFF894184160DFF8941881609C
:10CC0000DFF89018C160DFF890188167DFF88C18A2
:10CC1000C16742F2E4703044DFF884180160DFF845
:10CC200084184160DFF880180167DFF880184167D9
:10CC3000DFF87C188167DFF87C18C16742F6CC000A
:10CC40003044DFF874180160DFF870184160DFF8D5
:10CC500070188160DFF86C18C160DFF86C188167AC
:10CC6000DFF86818C16742F64C103044DFF86018EE
:10CC70000160DFF860184160DFF85C180167DFF8D9
:10CC80005C184167DFF858188167DFF85818C167EA
:10CC900042F634203044DFF850180160DFF84C18B9
:10CCA0004160DFF84C188160DFF84818C160DFF898
:10CCB00048188167DFF84418C16742F6B420304451
:10CCC000DFF83C180160DFF83C184160DFF83818E5
:10CCD0000167DFF838184167DFF834188167DFF83B
:10CCE0003418C16742F69C303044DFF82C180160DC
:10CCF000DFF828184160DFF828188160DFF8241871
:10CD0000C160DFF824188167DFF82018C16742F698
:10CD10001C403044DFF818180160DFF81818416033
:10CD2000DFF814180167DFF814184167DFF81018EE
:10CD30008167DFF81018C16742F604503044DFF80D
:10CD400008180160DFF804184160DFF804188160FA
:10CD5000DFF80018C160DFF800188167DFF8FC1702
:10CD6000C16742F684503044DFF8F4170160DFF801
:10CD7000F4174160DFF8F0170167DFF8F01741673B
:10CD8000DFF8EC178167DFF8EC17C16742F66C60DB
:10CD90003044DFF8E4170160DFF8E0174160DFF8A6
:10CDA000E0178160DFF8DC17C160DFF8DC1781670E
:10CDB000DFF8D817C16742F6EC603044DFF8D017CF
:10CDC0000160DFF8D0174160DFF8CC170167DFF8AA
:10CDD000CC174167DFF8C8178167DFF8C817C1674C
:10CDE00042F6D4703044DFF8C0170160DFF8BC179A
:10CDF0004160DFF8BC178160DFF8B817C160DFF869
:10CE0000B8178167DFF8B417C16743F254003044A4
:10CE1000DFF8AC170160DFF8AC174160DFF8A81746
:10CE20000167DFF8A8174167DFF8A4178167DFF80B
:10CE3000A417C16743F23C103044DFF89C1701602F
:10CE4000DFF898174160DFF898178160DFF89417D2
:10CE5000C1609FED0F0A80ED1E0ADFED0E0AC0EDE6
:10CE60001F0A43F2BC1030449FED0B1A80ED001AEC
:10CE7000DFED0A1AC0ED011A9FED092A80ED1C2A88
:10CE8000DFED0A2AC0ED1D2A9FED0A3A14E100BF2A
:10CE9000B97C183BA0A997BE6B6279BFACEC274464
:10CEA000A93D193B780E0020681D173B11C7AA3E0B
:10CEB000AE47B5BF42EC80BF06857DBF29B4DA44DA
:10CEC0003F80183B6C43F9BF7D3D7FBFB8CA114519
:10CED000A3C1163B732E91BF74D479BFB89EE644AC
:10CEE0008677183B975752BF3C1481BF0A7B0D458C
:10CEF00079FA143B4221B6BF05E077BF9AE9A14415
:10CF0000F469193B96234CBFFD667EBF71ED2D453C
:10CF1000087F163BEC69B33F26E566BF148ED2440A
:10CF2000DF2D183B10CB0ABFAD4C80BF6626C04436
:10CF3000CB3E173BE0118D3EFC0080BFC3E5E544CE
:10CF40009E69193B12BC193F9EEA80BF33FBBE4469
:10CF50002343163B63C133BD4DBD7EBF85BB9844A3
:10CF60005658193BEB19223F6DFE7FBF004807451D
:10CF7000FC87193BD5B2F93F00E27EBF8F9A11457D
:10CF8000AB28183B698F0B3FAD6A7DBF9AF1BE4459
:10CF9000ABD9183BD8D5483F7BA079BF1F15D444E7
:10CFA0005A820C3B3CF78E3F92216FBFF6B034445F
:10CFB0008B18173B874EEF3E09377DBF0018D644CC
:10CFC0004A01123B05A38E3F83856FBF7FDA5C4425
:10CFD0006999183BDAE18F3FFDBF7EBF1476E944C3
:10CFE0007A0E173BEF5385BEFF947EBFC34DE544D9
:10CFF0003401163B1C794CBF2D6082BFE172D844CE
:10D00000D9DE173BDB6BA13E732E81BF9A09C54465
:10D01000619D153BEB3793BEA54D79BFAE3F2844CC
:10D02000C950193BEACBAA3EA35C7EBF3373ED44E3
:10D03000073B0B3B8BFD8DBF1C2583BF877E3C448C
:10D040005C19163BD2C29DBEE1617ABF66C6C1447F
:10D050008544183BAF2322BFABB27BBF8FBABC4421
:10D0600022BB183B7A6DF63C408779BFEC39974478
:10D07000872F173B68CBB53F71917FBF3D42A544D9
:10D08000CBF2163BFF84093DA0327EBF52C09844CC
:10D09000BB31183BACE3F0BE878A81BFCDB4D84426
:10D0A0008A99163B1A88953E0E677EBF391C2A4422
:10D0B0002AF5173B15C8203F80ED1E3ADFED2B3ACD
:10D0C000C0ED1F3A43F2A420304480ED000AC0EDC9
:10D0D000010A80ED021AC0ED031A04F5A3610022D3
:10D0E0000A7080ED1E2AC0ED1F2A43F2243030441E
:10D0F00080ED003AC0ED013A10460873074626E07D
:10D100004FF4A56010FB07F0204405FB08F1014433
:10D11000087A002814D043F2903010FB07F0304416
:10D12000C8EB081200EBC2094868001DD0EC031AD6
:10D130000868001D90EC030A00F056FA89ED000A19
:10D1400008F10108B8F16E0FDADB7F1C3FB2002F47
:10D1500002DC4FF00008F5E7BDE8F183491C09B295
:10D16000072900DB00210023FFF794B83D62EE445D
:10D17000199081BF4809C044B745193B1F802C3F17
:10D1800068D080BFD7CB0445810C193BACFE4C3F27
:10D190007C4480BFAE9F2E4595151A3B00011FBFF2
:10D1A000C3637FBF29FC06458E78113B6C3E8EBF62
:10D1B000FDC180BF27616044CE6C193BEBE3A9BE83
:10D1C0006B457BBF4841EB446499173B8DCF64BCF2
:10D1D000BF9D7CBF8F4A97440F15193B25062DBF75
:10D1E0009D0D7DBFCD7C03453C58143B6DCAB1BF3E
:10D1F000C99380BF00B8DC449BB9173BC078F6BF29
:10D200006CD07FBF5CF711456DEA173B3D4992BF7B
:10D21000B4777ABFAE4FE744C56D173BC19150BF9D
:10D220004DD680BF665E0D45480D163B0378B7BFEF
:10D230004DA379BF855BA244B7E0183B36044BBFD2
:10D240001DCC7EBF330B2E458EB8153B9C33B23FB1
:10D25000A96769BF14BED344540E183B2EAD0ABF54
:10D26000935280BF0A37C04467B4173BA5A1863EDE
:10D27000A1D680BFEC39E6446F86173B7C9D183FF2
:10D2800024B980BFC30DBF449C58163B437428BDCE
:10D290006AF97DBFCD8C984453F1183BA703213F19
:10D2A000E0DB80BFF68C0745EB67183B520FF93F78
:10D2B0003CBF7CBF714D11457687183B8E22073FDE
:10D2C00019567DBF5C8FBE441F70173B15714E3FD2
:10D2D000CDAC79BF0A87D344DE380C3B849E8D3FAA
:10D2E00054FC73BF6ACC35449F9F183B2366EE3EC7
:10D2F0009E407CBF85C3D5444946143BCBF88F3F45
:10D300005BD16EBF9C045C4475B9183B4E62903F84
:10D31000FA477FBF5C97E9444236183B05A68BBEAF
:10D320002A8F7EBF6646E5442C42183B77F54ABFFC
:10D33000EC8681BFF608D84446B7183B2A039F3EC7
:10D34000DC1182BFAE8FC5445F31173BE9D590BE7B
:10D350000F9B7CBF100829443E141A3B11A9A93E1B
:10D36000E7C680BF4879EE4404DC183BAE9A4F3FD5
:10D37000D7857BBFE1CE0B4585DC183B7B4A16BFCA
:10D3800037C37DBFF6D0BD44F199113B9D468EBF9A
:10D39000668380BF6DE73944DE92183B82AA99BE4E
:10D3A0008D267BBF1F0DC2444FBC183BCB8324BFCF
:10D3B000FE467BBFD77BBC4431F3193BAAC0E43C9B
:10D3C000FDA37BBF7BB49744D0A3183B075FB83F56
:10D3D000A31E82BFE112A6443A6A163B456AF53C99
:10D3E0005F467DBFEC6198449A37183B91D6F0BEFA
:10D3F0002C6581BFA490D844CC74163B3771923E03
:10D40000FACF7EBF7F0A2A44B748183BA373223F56
:10D4100005A881BF8F02C0441C4F193BFC70303FF0
:10D42000D82A81BF330F0545E661193BB37E4B3FD8
:10D43000D76980BFAEAF2E459A34193B39F119BF79
:10D44000CD1F7FBF29F806454219113B1B9E8EBF99
:10D45000F3AB81BF5A3C6244632D193B5CAAA2BE68
:10D46000562B7BBF7B0CEB44C1FC193B2AF601BD5C
:10D47000C91C7FBF664698447C09193B0E9E2DBF90
:10D48000986C7CBF00280345BA86153B378EB4BF25
:10D49000E46680BFA498DC44045A193B9ED2F9BFCD
:10D4A0005A807EBF1F911145D6221A3B87A294BF96
:10D4B0000DAB78BF4861E6447A051A3B98BF52BF6E
:10D4C000E38881BFD7DB0D45C64E193B3D49BABF46
:10D4D000F88C74BF5C87A044FA371A3BE5B649BFA5
:10D4E000433B7FBFC3452E451499183B1EE1B43F13
:10D4F000D6396EBFEC21D544D88E183BD6E207BF93
:10D50000064C80BF9A21C0445E8F193BC11F963ED6
:10D51000D50980BF48A9E5443A2E193BA1D9193F46
:10D520008E3B81BFA430BF4438E1183B36C804BDF0
:10D53000C30D80BFE1329944FD09193BD32E223F30
:10D54000D8F57FBF665A0745F9D4183B132CF63F30
:10D55000BCE87FBF9A2D1245F7BD173BF778053F12
:10D5600038DB7CBF00B8BE447ABC183BE65B473F63
:10D570006A147ABF7B0CD4447CF80D3BA4E48D3F45
:10D58000105D74BF4EC235449A83183B4ACFE43EC7
:10D590003E087DBFAE77D644C21C183BD34D923FA8
:10D5A0008AAD70BF89B95C4486D61A3BB98D923F6B
:10D5B000C9027EBF2954E944E560193B302A89BE7F
:10D5C000A80080BF1FEDE5441BD3173BB9FB44BF48
:10D5D000641E81BF8FBAD744B28E193B4BE9A13E7E
:10D5E000ACA881BFB8E6C44480B531EE623A70EEB3
:10D5F000C23A30EE610A20EE000A03EEA30A03EEFF
:10D60000030A10EE100A00F027F841EC100B00F0AE
:10D6100047F851EC100B00F001F900EE100A01BDC3
:10D6200018B4024600200B46591E1BB2002B10D026
:10D6300012F8013B5840C0B200231C46E4B2082C4B
:10D64000F1DA44000006204601D580F01D005B1C85
:10D65000F3E7C0B212BC7047C0F3C75181B1FF29D4
:10D6600006D0C110400721F0E04101F16051704740
:10D6700041020CBF40F4E0016FF000410020704710
:10D6800000F0004100020AD0B0FA80FC00FA0CF071
:10D6900001F16051A1EB0C5101EBD0214005704725
:10D6A00051EC100B00B500F003F841EC100B00BD7D
:10D6B00040F2FF7C0B0D4DD0634566D230B421EAB9
:10D6C000035141F4801103F2FD3C5FEA5C0C01D38D
:10D6D00000184941890041EA907180004FF44014DC
:10D6E0000023E202D50AB1F5100107D46D081DD25E
:10D6F000091B641900184941491BF7D56D080AD266
:10D700000919641B00184941491BEFD56D08F7D36F
:10D7100001E0520817D0C01861419B1AAC410018B3
:10D720004941801AA941F4D452080AD0C01AA14133
:10D730009B186C4100184941801AA941E9D452084C
:10D74000F4D15B1C6C4161084FEA330001EB0C51D2
:10D7500030BC704750EA0103FBD030B4B1FA81F31A
:10D7600011B9B0FA80F41B190B3BB3F120042FBFA1
:10D7700000FA04F19940C3F1200420FA04F438BF00
:10D7800021439840D3F101039DE7634514BF50EA5C
:10D79000410CDEE711F5801FDBD8D943AFF30080E1
:10D7A0007047F0B40246106895681318506803EB90
:10D7B0005004C00721D54D441FE0F0BC02F10C001D
:10D7C000704713F8017B05F8017B491EF9D1A0B120
:10D7D000B60813F8011B06F00306032E08BF13F862
:10D7E000016B01EB06214942801C294405D011F848
:10D7F000016B05F8016B401EF9D1A342DDD013F88F
:10D80000016B16F0030104BF13F8011BC91C30099A
:10D810000F28DAD113F8010B0F30D6E701F00042E0
:10D820008B1AA3F16051B1F5801F0ADBB1F17F6F54
:10D830001FD242EAC102C10071F1004142EB5070B7
:10D8400070470B15C3F10903212B10D2890241EA5D
:10D85000905180020128494141F0004121FA03F032
:10D86000C3F12003994071F100415041704710000D
:10D8700070476FF0000013EB103F5CBF000E42EAF0
:10D88000C0507047012200F01F018A40DFF82819BC
:10D89000400941F820207047E0B50121022000F046
:10D8A00000FD01208DF8040000208DF80600022004
:10D8B0008DF8070000208DF8050080200090694653
:10D8C000DFF8F80800F02CFD07BDDFF8F408016868
:10D8D00081F08001016070472DE9F84F2DED028B3A
:10D8E00084B000F06FFD00F059FC00F0F5FDDFF8AA
:10D8F000D4580222DFF8D018284600F0FAFDDFF8ED
:10D90000CC486878297811EB00206080FEF73CFC59
:10D91000002001220AE0DFF8B818C0EBC0039B002A
:10D92000CA5401F60F3101F82020401C6528F2DBB3
:10D9300000200146C4E90401052000F00DFEFFF7B8
:10D94000ABFF7E2000F0C3FC002801D000F0D1FC2A
:10D95000DFF88008016841F002010160DFF8780813
:10D9600042F2CF0101856421C162818941F0010148
:10D970008181018841F0010101801D20FFF782FFB4
:10D980004FF4967001F081F901F018FB01214FF47A
:10D99000006000F091FC4FF4C07001F08FFD642036
:10D9A00001F093FD7F2001F0A6FD09E001F050FA9F
:10D9B00001F0AFFADFF8242800210F2001F0F1F880
:10D9C000DFF80888B8F80800401CA8F8080062B61C
:10D9D000DFF80C6898F80000002836D0002088F89E
:10D9E0000000DFF800B89BF904000C2801D00D28D6
:10D9F00045D100208BF80400DFF8EC17487800EBE5
:10DA0000800257003FB23A46304601F07DFD0222C7
:10DA100008F1040106F10A0001F076FD3846411EC6
:10DA200009B23046FFF7FCFDF11901F8010C0022A4
:10DA3000BF1C3946C9B2304600F0A8FD002800F0EE
:10DA4000A98200F0CBFDCBE90401002001F03AFAF5
:10DA5000DFF8984700210F2001F061F82060DFF81F
:10DA60009017084240F0B682B8F80800401CA8F8A9
:10DA7000080098F80000002840F08C82EAE7282788
:10DA80000C20FF2201E07254401C014689B2282973
:10DA9000F9DBAA20307004207070DFF85807B8F95D
:10DAA00006104FF4A56211FB02F14418B8F9040006
:10DAB00000EB40018D0054F8059002224946B01C4D
:10DAC00001F022FD99F80200307106207071601992
:10DAD000446802222146B01D01F016FDA078307284
:10DAE000022208F1040106F10A0001F00DFD9BF885
:10DAF0000300401C8BF80300707200242046ADF830
:10DB00000000BDF80000652891DADFF8C41601EBCB
:10DB1000800000F60C35E87801281DD00120E8705F
:10DB200004EB840909F110002828BFF680AF06EB4A
:10DB3000090A022269460AF10C0001F0E5FC002006
:10DB40008AF80E0028888AF80F00A87806F11001DC
:10DB500001F80900641CA4B2BDF80000401CADF837
:10DB60000000CEE7DFF8688608F6A64003900222A0
:10DB70000AF1020101F0C8FC9AF804B008F54A67FE
:10DB800087F801B008F6A840029002220AF10601C7
:10DB900001F0BAFC9AF80800B87008F6AC400190A1
:10DBA00002220AF10A0101F0AFFCB9F1AA0F09D172
:10DBB000DFF818064088F988884203D1387858453C
:10DBC0003FF4FEAEB9F1BB0F0AD1DFF80006408882
:10DBD0003989884204D13878B97888423FF4F0AE68
:10DBE0009AF8010004287FF4EBAE0098062863D170
:10DBF000B9F1AA0F7FF4E4AEDFF8D0054088398987
:10DC000088427FF4DDAE384690F802903878484577
:10DC10007FF4D6AE9AF809A087F803A0C7E90645B5
:10DC2000BB2030700420707002220399B01C01F0F8
:10DC30006BFC86F804B00720707102220299B01DB7
:10DC400001F062FC86F8089086F809A0022201998A
:10DC500006F10A0001F058FCD7E90601DFF8982523
:10DC6000002380185941000A40EA0160786601F0FB
:10DC7000AEF8786E40084000002141EA10610002D1
:10DC800010F5804041F10001C7E90801D7E90623FA
:10DC9000801A9941C7E91001052208F54E6106F185
:10DCA0000D0001F031FC01222A21304600F06EFC0B
:10DCB00000287FF485AE6DE1072840F01681B9F1A8
:10DCC000BB0F7FF47DAEDFF80495B9F80200F98848
:10DCD000884203D13878584500F0978097ED1A0AAA
:10DCE000F7EE000A30EE200ADFF8EC04D0ED090A66
:10DCF000F8EE600AB4EE600AF1EE10FA05D5BDEE5A
:10DD0000C00A10EE101A89B24162B7F90C60B9F975
:10DD1000048006F18E0AAAEB080A0FFA8AFAA6EB2B
:10DD200008008E3800B20190504601F040FC834656
:10DD300031464046091A009197ED188AD9E9044501
:10DD4000084601F034FC834514DA5046C117201808
:10DD50006941C9E9040100EE10AAB8EEC00A30EE2C
:10DD6000480AF1EE040A80EE200A30EE080A87ED38
:10DD7000180A3CE0019801F01AFC8246009801F074
:10DD800016FC824519DA01A8B0F90000C117201865
:10DD90006941C9E9040101A8B0F9000000EE100AC8
:10DDA000B8EEC00A30EE480AF1EE040A80EE200A0E
:10DDB00030EE080A87ED180A19E00098C1172018FC
:10DDC0006941C9E9040100EE106AB8EEC00A00EE2C
:10DDD000908AF8EEE00A30EE600A30EE480AF1EE82
:10DDE000040A80EE200A30EE080A87ED180AD9E905
:10DDF0000401002399423FF7E3AD01DBBFF4E0AD3E
:10DE000018460146C9E90401DAE597ED1A0ADFF878
:10DE1000C803D0ED090AF8EE600A70EEC00A9FED63
:10DE2000A81A00EE810A87ED1A0A97F803909AF86B
:10DE3000090081457FF4C4ADC7E90A45D7E904016B
:10DE4000201A65EB0101C7E91401AA2030700420F3
:10DE5000707002220399B01C01F056FB86F804B0E2
:10DE60000820707102220299B01D01F04DFBB878B4
:10DE7000307286F809900222019906F10A0001F039
:10DE800043FBDD48002120186941000A40EA016097
:10DE9000786600F09CFF786E40084000002141EA5F
:10DEA0001061000210F5804041F10001C7E90C014A
:10DEB000D7E90A23801A9941C7E91201052208F619
:10DEC000E84106F10D0001F01FFB052208F54F6146
:10DED00006F1140001F018FB01222A21304600F05F
:10DEE00055FB00287FF46CAD54E0082857D1B9F1F8
:10DEF000AA0F7FF465ADB5484088398988427FF420
:10DF00005FAD384690F80290387848457FF458ADB8
:10DF1000F8789AF8091088427FF452ADC7E90E45A7
:10DF2000BB2030700420707002220399B01C01F0F5
:10DF3000EBFA86F804B00920707102220299B01D34
:10DF400001F0E2FA86F80890F878707202220199DE
:10DF500006F10A0001F0D8FA042208F6085106F189
:10DF60000D0001F0D1FAD7E90E01D7E90823801A94
:10DF70009941C7E91601052208F6F84106F1140097
:10DF800001F0C2FA00222A21304600F0FFFA0028F0
:10DF90007FF416AD00F05CFF00F0BBFF10E5092830
:10DFA0007FF40EADB9F1BB0F7FF40AAD874840880E
:10DFB000F98888427FF404AD387858457FF400AD85
:10DFC000F8789AF8091088427FF4FAAC8248406ADF
:10DFD0007881F5E472B6400414D5884D00211020F4
:10DFE00000F09DFDC0F30900288001467B2803DA7C
:10DFF0000022744800F04BFD4FF4804200210F20B6
:10E0000000F0CFFD20687E4908427FF4CFAC00F0DD
:10E01000FBFA04460D46DFF8ACA19AF80500009023
:10E020009AF8009005287FF49DADB9F1AA0F7FF40E
:10E03000C7AC9AF8010004287FF4C2AC02220AF1AE
:10E040000201684601F060FABDF800106529BFF6CC
:10E05000B7AC9AF8040000287FF4B2ACC1EBC10061
:10E0600085005B4C04220AF10B01201D284401F0BD
:10E070004BFA2C4404220AF10F0104F1080001F0CC
:10E0800043FA04220AF1130104F10C0001F03CFAF6
:10E0900004220AF1170104F1100001F035FA9AF890
:10E0A0001B0020759AF81C00607505220AF11D01FD
:10E0B00004F1160001F028FA0020207080E400002E
:10E0C000CDCCCC3D4F490888C00700D470472DE91E
:10E0D000F8430A884FF6FE7002400A804620C86165
:10E0E0003A4CD4E9040110F10A0641F10007C4E9F1
:10E0F00004673046394640F28C52002301F05CFA46
:10E10000C4E9060140F28C520023A2FB008902FB05
:10E110000199B6EB080067EB09010A2201F04CFAFD
:10E12000A080B4F904106E291AD20022668801E09A
:10E13000521C12B2002A13DC01EB410080002D4B6F
:10E140004FF4A56515FB02F52B441D582D88B542EB
:10E15000EED11844007A0028EAD0E2800120207035
:10E16000A089401CA08100B2472803DB0020A081C9
:10E17000FFF7ABFB2448006800F07F006081642853
:10E180000ADAB4F90800002806D0002020817F2098
:10E19000BDE8F24301F0AAB9BDE8F18380B50120E2
:10E1A00080F310880021194801F072FB002080F3F1
:10E1B000108862B601BD000000E100E000040240EA
:10E1C00014040240EC0D0020008000080000002034
:10E1D0002000002040380240000400400090052448
:10E1E000604C0020C00C002094490020E80D002065
:10E1F00000D00524084200200000DC05E40D0020CA
:10E200000090272410040040002C004000C00008AB
:10E2100010B43C4A516801F00C01042902D00829CD
:10E2200003D022E03849016021E01168C1F3805138
:10E23000136803F03F03002907D03349B1FBF3F320
:10E240001168C1F388114B4306E03049B1FBF3F389
:10E250001168C1F388114B431168C1F30141491C96
:10E260004900B3FBF1F1016001E028490160516808
:10E2700001F0F001264B0909595C0468CC40446068
:10E28000516801F4E051890A595CCC4084605168BE
:10E2900001F46041490B595C4268CA40C26010BC3D
:10E2A00070471C4A0029116802D00843106070476B
:10E2B00021EA000010607047174A0029116802D057
:10E2C00008431060704721EA000010607047014663
:10E2D00040090B4A012801D1106804E0022801D14D
:10E2E000106F00E0506F01F01F01C84000F0010006
:10E2F00070470A48016841F0807101607047000072
:10E30000003802400438024000127A000024F40071
:10E31000680E002030380240403802407438024015
:10E32000F8B4002332E001229A400C681440944271
:10E330002BD15C000325A540ED4306682E40066006
:10E3400006680F79A7403E4306600E79012E01D082
:10E35000022E11D186682E40866086684F79A740CC
:10E360003E438660466826EA0202426042688E7931
:10E370009E40B6B232434260C2681540C560C26872
:10E38000CD7905FA04F41443C4605B1C102BCAD386
:10E39000F1BC7047018370474183704710B40B464E
:10E3A000DB1000EB8300890001F01C01036A0F24DD
:10E3B0008C40A3430362036A8A401A43026210BC82
:10E3C0007047000080B53648016841F47001016073
:10E3D0003449086840F001000860002088600A683D
:10E3E000314802400A6031484860086820F48020C3
:10E3F00008600020C86000F005F84FF000602C496C
:10E40000086001BD82B00020009001902549086895
:10E4100040F480300860086800F4003001900098F3
:10E42000401C00900198002803D10098B0F5A06F1F
:10E43000F1D10868400C00F001000190019801281A
:10E440002CD1086C40F0805008641A48026842F4ED
:10E450008042026088688860886840F40040886074
:10E46000886840F4A050886013484860086840F00D
:10E470008070086008688001FCD540F205600F4A92
:10E4800010608868800880008860886840F002001A
:10E490008860886800F00C000828FAD102B0704744
:10E4A00088ED00E000380240FFFFF6FE1030002447
:10E4B00008ED00E00070004008544007003C0240B6
:10E4C0000D480E4901600E49016070470D48016812
:10E4D00041F000410160704780B5FFF7F1FF094846
:10E4E000016821F4407141F400710160BDE8014010
:10E4F000ECE701F009B80000043C02402301674545
:10E50000AB89EFCD103C02401CB501210420FFF780
:10E51000C8FE01208DF8040000208DF806000120BF
:10E520008DF8070000208DF80500802000906A4CCF
:10E5300069462046FFF7F4FE802120464183C0460D
:10E5400013BD654A002803D180211046FFF724BF80
:10E5500080211046FFF71EBF10B50446FFF7D4FF19
:10E560000020FFF7EEFF0120FFF7EBFF0A2000F08D
:10E57000D6F8204600F0B6F84FF4804000F05FFA7D
:10E580004FF48040BDE8104000F05EBA38B50C464C
:10E59000154600220146204600F05AFA01220021C9
:10E5A000204600F067FA284600F016FC62B6002408
:10E5B00000210F2000F0B3FA000608D4641C47487D
:10E5C0004188A142F4DA01210170002032BD80228D
:10E5D00000210F2000F0E5FA012032BD3EB50024F5
:10E5E0002546684600F059FA042207E02D0245EA64
:10E5F00014656846805C50EA0424521E002AF5D552
:10E600002046294603B030BD3EB500242546684665
:10E6100000F048FA042207E02D0245EA1465684636
:10E62000805C50EA0424521E002AF5D52046294673
:10E6300003B030BD38B50446294D012C02D128461F
:10E6400000F0FBF8022C03D105F10C0000F0F5F806
:10E65000032C03D105F1180000F0EFF8042C03D1CE
:10E6600005F1240000F0E9F8052C03D105F1300094
:10E6700000F0E3F8072C03D105F13C0000F0DDF8D1
:10E68000002000F0EAFA012C03D105F1480000F067
:10E69000C7F8022C03D105F1500000F0C1F8032C9B
:10E6A00003D105F1580000F0BBF8042C03D105F1AB
:10E6B000600000F0B5F8052C03D105F1680000F00A
:10E6C000AFF8072C03D105F1700000F0A9F8002085
:10E6D000BDE8324000F0C1BA00080240E00D002061
:10E6E000680D002010B50446002001F02EF902E06C
:10E6F000012000F021F8012000F01EF810F1010FB8
:10E70000F6D0012001F021F92046FFF793FF4FF0EA
:10E71000FF3200210F20BDE8104000F042BA44F261
:10E72000A011484301B400E000BF0098411E0091D1
:10E730000028F9D101B0704770B50646DFF86C5576
:10E74000286800214174817601838162C16201637E
:10E75000416300F062F8DFF85815884202D04FF0AC
:10E76000FF3070BD00F0E2FB002000F0B3FA04229D
:10E770000021242000F0FFF91E2000F022FA0446B8
:10E78000A4B22046000A29684872042000F019FA51
:10E79000000609D0022212212D2000F0ECF9286891
:10E7A000018B41F480510183062000F00AFA2968A8
:10E7B0000860072000F005FA2968486014F01F047B
:10E7C0000C7401D110200874087C00F0D1FBF00714
:10E7D00007D500F031FA2868018B41F4006101830C
:10E7E0000BE00521362000F0ADF902464FF6FF5050
:10E7F00002400521362000F0C6F9012000F06AFA37
:10E8000000220A212C2000F0B6F90021042000F09B
:10E8100086F929684861002070BD002108467EE124
:10E8200010B5044622780B212A2000F0A4F9626872
:10E8300000211E20BDE81040B3E12DE9F84F044649
:10E8400000252E462778DFF86C04617930F81180B6
:10E850006078A0F101095FFA89F9042F01D0072F30
:10E8600002D14FF0010A00E0AA46DFF840B4DBF81D
:10E8700000104A69E079002805D142F480024A611B
:10E880004FEAD80802E022F480024A61207A087236
:10E890004A6922F440324A61207A000400F4403090
:10E8A00002434A612946042000F07BF9424642F6C1
:10E8B00004012E2000F067F9484600F0A5F9DFF8C2
:10E8C000F80310F80780DFF8F40350F82820072138
:10E8D0002B2000F066F9DFF8E80310F808200B2180
:10E8E0002B2000F048F9DFF8DC0310F80A200B2198
:10E8F000282000F040F9DFF8D00350F828200C2140
:10E90000282000F04EF9DFF8C403E17900EB810024
:10E91000A17930F811200221272000F034F9DFF826
:10E92000B00330F819200421272000F02CF9E079F9
:10E93000002805D164220621272000F024F917E0E1
:10E94000A07804280AD110220621272000F01BF904
:10E9500010222621272000F00EF909E020220621AE
:10E96000272000F010F928222621272000F003F9A3
:10E97000DFF8D40400EB0910E17850F821200821D9
:10E98000272000F00EF96089002802D141F24100F1
:10E99000608162892021272000F0F5F8DFF8AC843F
:10E9A000D8F800200C21232000F0FBF808EB4900E8
:10E9B00082880421232000F0E6F8A079002809D0FD
:10E9C000DFF8D404E179425C2946212000F0D3F835
:10E9D0000325012607F00F003F0107F0F00707436A
:10E9E0006078800400F4402007432D0505F44015AD
:10E9F0003D43760406F4003635432079800500F067
:10EA0000F8600543607945EAC0652A4600211F2069
:10EA100000F0C7F8DBF80010A27860780243E079D4
:10EA2000400340EA0240C860CA680021082000F0A4
:10EA3000B8F8422200210D20BDE8F84F9BE00246C5
:10EA400041F604012E209EE00246002118209AE0A3
:10EA500010B50B461146421840F20144A24206DAB4
:10EA6000801E0246092000F022F8002010BD4FF061
:10EA7000FF3010BDDFF834321B68DB68184340EA12
:10EA8000815040EAC23002460021082089E0034656
:10EA900010460A460146112026E0034605220021C1
:10EAA000172021E003460522002115201CE01CB59B
:10EAB0000C0005D140F080008DF8000001200FE02F
:10EAC00040F0C0008DF800006846802C02DA4170EA
:10EAD000022005E041F080044470C90981700320E0
:10EAE000694600F00EFF13BD1CB50C0003D18DF874
:10EAF000000001200FE040F040008DF80000684663
:10EB0000802C02DA4170022005E041F0800444705C
:10EB1000C90981700320694600F0CEFE13BD1CB503
:10EB200000246B46042289B280B2FFF7DDFF032088
:10EB300004E06946095C11EB0424401E0028F8D566
:10EB4000204616BD80B56B46022289B280B2FFF71F
:10EB5000CBFF9DF801009DF8001011EB002080B262
:10EB600002BD80B56B46012289B280B2FFF7BCFFBF
:10EB70009DF8000002BD04B56B46012289B280B247
:10EB8000FFF795FF01BD80B513468DF80030120ADE
:10EB90008DF801206B46022289B280B2FFF787FF11
:10EBA00001BD1CB500236C4602E0E254120A5B1C56
:10EBB000042BFADB6B46042289B280B2FFF777FFA1
:10EBC00013BD80B5024692B204212D20FFF7DBFF72
:10EBD000032206212D20FFF7CEFF002206212D2043
:10EBE000FFF7C9FF0A212D20BDE8044097E7000088
:10EBF00080B5002202212C20FFF7BDFF0222114622
:10EC00002C20BDE80840B6E710B504466D2240F65A
:10EC100006012E20FFF7AFFF41F60601002C05D0BC
:10EC200040F207622E20BDE81040ACE741F20762D7
:10EC30002E20BDE81040A6E780B50E2000F04AF86F
:10EC40004FF4004206212D20FFF79DFF0120FFF722
:10EC500066FD0120BDE802403CE010B504460021FD
:10EC60000420FFF75CFF114909684861002C03D0BC
:10EC700020F48020486102E040F4802048614A6925
:10EC800000210420BDE810408BE710B504460021A8
:10EC90001A20FFF744FF000DC4F3130454EA005494
:10ECA000224600211A20BDE810407AE72C0D0020F2
:10ECB0003001CADEE8FC000868FC000888FC000897
:10ECC000A0FC0008A8FC000870FC0008B8FC0008C4
:10ECD000C4FC00081CB504466B4602220021362005
:10ECE000FFF702FF0E2C59D8DFE804F011081A587C
:10ECF000585858233158583D4349520000208DF848
:10ED000000006846417801F0FE01417046E09DF840
:10ED1000000000F0FC0040F001008DF800003DE034
:10ED20009DF8000000F0FC0040F002008DF80000AB
:10ED300034E09DF8000000F0B30040F048008DF88A
:10ED400000006846417841F08001417026E09DF85E
:10ED5000000000F0B3008DF800006846417801F033
:10ED60007F0141701AE06846417841F0020141702C
:10ED700014E06846417801F0FD0141700EE09DF815
:10ED8000000000F0CF0040F020008DF8000005E00A
:10ED900001208DF8000003208DF801006B46012250
:10EDA00000213620FFF783FE0DF1010301221146F9
:10EDB0003620FFF77CFE13BD80B50020FFF78AFFE9
:10EDC000002204213620BDE80840FFF7DCBE0246E1
:10EDD00001210A20FFF7E5BE7CB5044600252E463A
:10EDE000A0070AD58026324629460D20FFF7C3FE2C
:10EDF0000120DFF8901109688876E0071AD546F0FF
:10EE00000606324629460D20FFF7B5FE03210F20E6
:10EE1000FFF798FE10F4816F13D0402229460D2091
:10EE2000FFF7A9FE2846DFF85C11096888764FF0E5
:10EE3000FF3506E046F00206324629460D20FFF770
:10EE40009AFE284676BD0000C8FC0008ACFC00080D
:10EE500010B500210E20FFF762FE04460022114685
:10EE60000E20FFF79EFE402200210D20FFF783FEBB
:10EE7000DFF8142100210F20FFF793FE00F00EF8B9
:10EE8000224600210E20FFF78CFE0020DFF8F41050
:10EE90000968887610BD0000B4FC000880B5032125
:10EEA0000F20FFF75EFE00F08001400000F08000C0
:10EEB000814206D0012203210D20BDE80840FFF762
:10EEC0005ABE01BD10B50446600701D4FFF7E6FF46
:10EED0004FF48072E00701D54FF4407200210D20FD
:10EEE000FFF751FEE00712D503210F20FFF739FE8F
:10EEF00000070CD5FFF7ACFFA00705D44FF48072D4
:10EF000000210D20FFF73FFE4FF0FF3010BD002025
:10EF100010BD80B5E02203213620FFF72CFEF02241
:10EF200003213620BDE80840FFF725BE80B5FFF776
:10EF300043FF002211462C20FFF725FE0022062168
:10EF40002C20FFF718FEFFF753FE00220321362086
:10EF5000FFF711FE0120FFF7E2FBF022032136202C
:10EF6000FFF709FE0020DFF81C100968887601BD54
:10EF7000024602F01F0242F060020E212B20FFF732
:10EF8000FABD00002C0D0020F8FF2724012200F01C
:10EF90001F018A40DFF8F814400941F8202070472B
:10EFA000BFF34F8FDFF8EC140A6802F4E062DFF879
:10EFB000E80402430A60BFF34F8FFEE730B587B025
:10EFC00062B601210420FFF76CF901214FF4802083
:10EFD000FFF772F9DFF8C44407220A212046FFF741
:10EFE000DDF907220B212046FFF7D8F902208DF822
:10EFF000040003208DF8050000208DF80600012094
:10F000008DF807004FF48060009069462046FFF7B6
:10F0100087F901208DF8060000208DF807000220F6
:10F020008DF804004FF40060009069462046FFF719
:10F0300077F901208DF8040003208DF805000020E9
:10F04000ADF806004FF48050009069462046FFF767
:10F0500067F94FF46140039000200490ADF814006C
:10F06000ADF818000C20ADF81600DFF8345403A9F1
:10F07000284600F009FD4FF4E06000F0D7FB2720A0
:10F080008DF8080000208DF809008DF80A00012095
:10F090008DF80B0002A800F0CEFB2720FFF776FFCB
:10F0A0000121284600F04AFD4FF48051204641835B
:10F0B000C046012240F22551284600F054FD07B019
:10F0C00030BD2DE9F84FDFF8DC6306F56577DFF832
:10F0D000D08340F22551404600F069FD012840F000
:10F0E000668140F22551404600F084FD404600F024
:10F0F00036FD0146C9B2BA88521CBA8006F51874AA
:10F10000AA2901D0BB2909D12078002806D186F888
:10F1100030110020B8800120207085E192B2B2F554
:10F12000977F18DA2078002800F07E8106F5987520
:10F13000A954012A40F378814FF00A09687810FB3E
:10F1400009F03881014689B2002904D0014689B20C
:10F15000B1F5977F03DB00202070B88064E14B1E7F
:10F160009A42C0F26181AA78EB7813EB02223A80CE
:10F170002A79627000222270BA80B1F5977F00F37D
:10F180005381411E09B22846FEF74AFAB7F808A093
:10F1900006EB0A0191F82F11884240F0458128784A
:10F1A000AA2804D139884FF6FF7291420DD0AA28BF
:10F1B0000BD13988BC4A1288914240F03581617880
:10F1C000BA4A1278914240F02F816979042902D11C
:10F1D000FFF7E6FE28E101291DD1022206F59B7109
:10F1E00006F2963000F090F9287AA070002840F0DE
:10F1F0001B817888652880F21781AD4901EB800476
:10F20000022206F59E71204600F07EF9687AA07011
:10F210000020E07008E1032900F00681052940F094
:10F220008A80AA285CD1BB2030700020B0709E4834
:10F230000088F0709D480078307105207071484654
:10F2400038814FF0000AD346BBF1650F80F2EE80A3
:10F250009848CBEBCB0110EB8104207801283AD001
:10F26000192000FB0AF000F12301B1F5977F80F22D
:10F27000DD8001222270398135180020687285F8FE
:10F280000AB00422211D05F10B0000F03DF9042213
:10F2900004F1080105F10F0000F036F9042204F131
:10F2A0000C0105F1130000F02FF9042204F1100104
:10F2B00005F1170000F028F9207DE876607D2877B9
:10F2C000052204F1160105F11D0000F01DF90AF1F7
:10F2D000010A1FFA8AFA0BF1010B1FFA8BFBB3E745
:10F2E00000241920604300F10B01514580F29C80FD
:10F2F000304400F239110A78497811EB0225ADB299
:10F30000652D15DA042200F23B11684600F0FCF886
:10F31000009842F2117188420AD3C5EBC500810002
:10F320006448009A031D5B589A4201D3012242545B
:10F33000641CA4B2D5E70C291AD1AA2874D10C20D8
:10F340005D490870687819FB00F90FFA89F9002007
:10F3500006F5197203E0295C1154401C80B248453F
:10F36000F9DB0222394606F2662000F0CDF85BE0B8
:10F370000D291AD1AA2857D10D204F490870687855
:10F3800019FB00F90FFA89F9002006F5197203E05C
:10F39000295C1154401C80B24845F9DB02223946F1
:10F3A00006F2662000F0B0F83EE000BF3CE040F21C
:10F3B00026642146404600F0FAFB01282AD1F8884D
:10F3C0003989491E81420ADBB0F5977F07DA315C43
:10F3D000404600F0C0FBF888401CF88024E021463D
:10F3E000404600F007FC4021404600F0D9FB0128D0
:10F3F000F9D04FF4805129484183C046012240F2A0
:10F400002551404600F0AFFB00222146404600F067
:10F41000AAFB09E02146404600F0ECFBB8F80000EA
:10F42000F860B8F804003861BDE8F18F3889093018
:10F43000494690FBF1F070707078010011FB09F102
:10F440003981F1D0084680B2B0F5977FECDA491ED9
:10F4500009B23046FEF7E4F83989314401F8010C6D
:10F46000002240F22551404600F07DFB012240F28F
:10F470002661404600F077FB4FF480510748018336
:10F48000C0463178404600F066FB0120F880CBE7AB
:10F4900000E100E00CED00E00400FA050008024085
:10F4A000004800403047002002000020C00C00202F
:10F4B0002C0B002020000020C40C002010490A68FA
:10F4C00022F4C07210430860704781B0002100919F
:10F4D0000B490A68D209D2010092009A00F07F001D
:10F4E000104300900098086001B0704700F07F0062
:10F4F00004490860704740F0800002490860704786
:10F50000042C0040002C004062B38B0708D0521E30
:10F5100011F8013B00F8013B00F024808B07F6D185
:10F52000830740F0208000BF103A07D330B4B1E821
:10F530003810103AA0E83810F9D230BC530724BF75
:10F54000B1E80810A0E8081044BF51F8043B40F8A7
:10F55000043BD20724BF31F8022B20F8022B44BF12
:10F560000B7803707047121F17D35B0009D151F855
:10F57000043B20F8023B1B0C121F20F8023BF6D282
:10F580000BE051F8043B00F8013B1B0A20F8023B5A
:10F590001B0C121F00F8013BF3D238BF121D521E84
:10F5A00024BF11F8013B00F8013BF8D87047002850
:10F5B00048BF40427047000013F0004C03D55B4247
:10F5C000524263F100039CEA210C00F0178010B551
:10F5D000644603D34942404261F1000100F00EF855
:10F5E000640004D34942404261F10001244203D542
:10F5F0005B42524263F1000310BD0000B3BBD9B1BE
:10F60000B2F5803F7DD2022A1ED98C46B1FBF2F1C1
:10F6100002FB11C31B0443EA1043B3FBF2FC02FBE1
:10F620001C3380B240EA0343B3FBF2F002FB10321A
:10F6300040EA0C4000237047022A05D98446B0FBFB
:10F64000F2F002FB10C270474AB105D100F001028E
:10F6500049085FEA3000704700220023704700F03D
:10F66000D1BA0B000200002100207047904271EBDC
:10F67000030CF6D3B3F5803F2FD2F0B5B3FA83F77E
:10F68000B1FA81F4A7F10F0E3D1B5340CEF12006D5
:10F6900002FA0EF2F3415340B5F10F0746D80F3C82
:10F6A0002C444140C4F12006A040F1414140B1FB4F
:10F6B000F3F603FB1611A2FB0645001BA94102D27B
:10F6C000761E8018594180EA010221FA0EF362FA8F
:10F6D0000EF200215A403046F0BD30B4B1FBF3FCCD
:10F6E00003FB1C11A2FB0C45001BA94103D2ACF18A
:10F6F000010C8018594130BC02460B46604600217F
:10F700007047B2F1807F65D3F0B5B2FA82F7B1FAF3
:10F7100081F4C7F10F063D1B22FA06F307F1110E23
:10F72000F24120355A40B5F10F07B8D94140C4F134
:10F730002006A040F1414140B1FBF3FC03FB1C114A
:10F74000A2FB0C45001BA94103D2BCF1010C80189F
:10F7500059410F2F12D30F3FC90341EA5041B1FB6A
:10F76000F3F603FB1611A2FB0645D4EBC030A9410A
:10F7700002D2761E8018594146EACC3C07B341407C
:10F78000C7F12006B840F1414140B1FBF3F603FB5D
:10F790001611A2FB0645001BA94102D2761E801855
:10F7A000594180EA010221FA0EF3C7F1200462FAFE
:10F7B0000EF20CFA07F05A402CFA04F13043F0BD77
:10F7C00080EA010221FA0EF3002162FA0EF260468D
:10F7D0005A40F0BD8C46B1FBF2F102FB11C31B0293
:10F7E00043EA1063B3FBF2FC02FB1C331B024CEA3E
:10F7F000002043EA1063B3FBF2FC02FB1C331B0244
:10F800004CEA002043EA1063B3FBF2FC02FB1C331A
:10F810001B024CEA002043EA1063B3FBF2FC02FB3C
:10F820001C324CEA00200023704700001B490843AB
:10F830001B490860704770B403781C460122C178E8
:10F8400000291BD016490B6803F4E063C3F5E0639D
:10F850001B0A4578C3F104018D4081780F261E41B3
:10F8600031400D432D010F490D55017801F01F0066
:10F8700082400D48491140F8212007E003F01F03A2
:10F8800002FA03F30948641140F8243070BC704751
:10F89000074A114008430749086070470000FA050D
:10F8A0000CED00E000E400E000E100E080E100E0B9
:10F8B00080FFFF1F08ED00E02DE9F04106460F46EE
:10F8C00014461D4600F0B9F84FF0000806E0404627
:10F8D00080B2385C00F0B9F808F1010840463146C2
:10F8E00080B28842F3D3002604E0002000F0ADF897
:10F8F000A855761CA642F8D300F0A3F80020BDE876
:10F90000F0812DE9F04106460F4614461D4600F0F1
:10F9100094F84FF0000806E0404680B2385C00F0F2
:10F9200094F808F101084046314680B28842F3D38A
:10F93000002603E0A85D00F088F8761CA642F9D303
:10F9400000F07FF80020BDE8F08178B587B004466C
:10F9500001214FF48040FEF7AFFC0020ADF8080015
:10F960004FF48270ADF80A0000200390ADF810004B
:10F970004FF40070ADF81200012C03D10820ADF84F
:10F98000140002E01820ADF814000020ADF81600B5
:10F990003A4C02A9204600F037F901210620FEF773
:10F9A00080FC0C20009002208DF8040003208DF8CC
:10F9B00005000020ADF80600314D69462846FEF7E7
:10F9C000AFFC0220009001208DF8040003208DF888
:10F9D000050001208DF8070000208DF8060069461B
:10F9E0002846FEF79DFC4FF48060009002208DF8C1
:10F9F000040003208DF805000020ADF80600214E1C
:10FA000069463046FEF78CFC052202212846FEF7A7
:10FA1000C5FC052203212846FEF7C0FC05220A2169
:10FA20003046FEF7BBFC022128460183C046012177
:10FA3000204600F005F908B070BD02211048FEF71D
:10FA4000ABBC02210E48FEF7A5BC38B504460B4DF1
:10FA50000221284600F001F90028F9D02146284665
:10FA60008181C0460121284600F0F7F80028F9D02E
:10FA700028468089C046C0B232BD00000038004030
:10FA8000000802400004024038B584B004460D4628
:10FA9000218A4CF6FF700140E88801432182A18948
:10FAA0004EF6F3100140A888014328890143688974
:10FAB0000143A181A18A4FF6FF400140A88901437B
:10FAC000A1826846FEF7A4FB1A48844202D01A4875
:10FAD000844201D1039900E002992A681920414328
:10FAE000A089000403D55200B1FBF2F202E09200BB
:10FAF000B1FBF2F26420B2FBF0F109010B461B09E5
:10FB000000FB1322A089000408D5D2003232642001
:10FB1000B2FBF0F000F00700014307E012013232BF
:10FB20006420B2FBF0F000F00F000143218105B02A
:10FB300030BD00000010014000140140002904D035
:10FB4000818941F400518181704782894DF6FF71AE
:10FB50000A4082817047C1F3080181807047808824
:10FB6000C0F30800704718B40B46DBB25B090124F0
:10FB700001F01F0104FA01F1012B01D10C3004E066
:10FB8000022B01D1103000E01430002A026802D0AC
:10FB90001143016002E022EA0101016011BC7047DB
:10FBA0000246002012880A4200D00120704730B47B
:10FBB000024600200C46E4B26409012501F01F034F
:10FBC00005FA03F3012C02D19489234006E0022CAC
:10FBD00002D1148A234001E0948A2340090A05FADD
:10FBE00001F112881140002B02D0002900D02846D4
:10FBF00030BC70470122090A02FA01F189B2C943F7
:10FC00000180704770470000038803F441530A885D
:10FC100013434A8813438A881343CA8813430A89C3
:10FC200013434A8913438A891343CA8913430380C0
:10FC3000838B4FF2FF7213408383098A01827047DE
:10FC4000002904D0018841F04001018070470288FA
:10FC50004FF6BF710A4002807047024600201289A9
:10FC60000A4200D001207047000001020304000591
:10FC7000405C0000A05C0400C06C0800805C0400D4
:10FC8000E03F1E00E07D1E00070400090805400853
:10FC900009104008080540081D0400081D0400085C
:10FCA0001E265626BEBE0000D8BC000007A90225AD
:10FCB00070889B88401008000A00160001000600AA
:10FCC0000100020087008D002D001A3152001A3306
:10FCD0009A001A351D011A376B003B31BE003B33C9
:10FCE0005E013B3596023B37000098599859EA511E
:10FCF0008E421E45142E0080EA51F4283233E03A39
:10FD0000703DE03AC235842BC2353233C235C2353C
:10FD1000AE47E03A5038A2305038000000000000F2
:10FD200019E050F8042BD30744BFA9F101039A1836
:10FD3000091F0023042942F8043BF9D25FEA817CC1
:10FD4000134604D54FF0000CA2F800C09B1CC90755
:10FD500044BF0021197050F8041B0029E1D17047FD
:10FD600010B5074979441831064C7C44163404E038
:10FD70000A68081D114488470146A142F8D110BD08
:10FD80002C000000480000004EF68851CEF2000121
:10FD9000086840F470000860BFF34F8FBFF36F8FA7
:10FDA0004FF00070E1EE100A7047000075FFFFFF92
:10FDB000643E0000780E002000000000E7D9FFFF3D
:10FDC000D001000024010000000000200120C046F6
:10FDD000002801D0FFF7C4FFAFF300800020AFF38D
:10FDE0000080FDF779FD00F000F800F001B8000098
:10FDF0000746384600F002F8FBE7000080B5AFF395
:10FE00000080024A11001820ABBEFBE7260002006A
:10FE10000148804701480047C5E3000821FE00086B
:10FE2000AFF30080FFF7B0FFFFF7D0FFFFF7FEBF93
:10FE3000FFF7FEBFFFF7FEBFFFF7FEBFFFF7FEBFF6
:10FE4000FFF7FEBFFFF7FEBFFFF7FEBFFFF7FEBFE6
:10FE5000FFF7FEBFFFF7FEBFFFF7FEBFFFF7FEBFD6
:10FE6000FFF7FEBFFFF7FEBFFFF7FEBFFFF7FEBFC6
:10FE7000FFF7FEBFFFF7FEBFFFF7FEBFFFF7FEBFB6
:10FE8000FFF7FEBFFFF7FEBFFFF7FEBFFFF7FEBFA6
:10FE9000FFF7FEBFFFF7FEBFFFF7FEBFFFF7FEBF96
:10FEA000FFF7FEBFFFF7FEBFFFF7FEBFFFF7FEBF86
:10FEB000FFF7FEBFFFF7FEBFFFF7FEBFFFF7FEBF76
:10FEC000FFF7FEBFFFF7FEBFFFF7FEBFFFF7FEBF66
:10FED000FFF7FEBFFFF7FEBFFFF7FEBFFFF7FEBF56
:10FEE000FFF7FEBFFFF7FEBFFFF7FEBFFFF7FEBF46
:10FEF000FFF7FEBFFFF7FEBFFFF7FEBFFFF7FEBF36
:10FF0000FFF7FEBFFFF7FEBFFFF7FEBFFFF7FEBF25
:10FF1000FFF7FEBFFFF7FEBFFFF7FEBFFFF7FEBF15
:10FF2000FFF7FEBFFFF7FEBFFFF7FEBFFFF7FEBF05
:10FF3000FFF7FEBFFFF7FEBFFFF7FEBFFFF7FEBFF5
:10FF4000FFF7FEBFFFF7FEBFFFF7FEBFFFF7FEBFE5
:10FF5000FFF7FEBFFFF7FEBFFFF7FEBFFFF7FEBFD5
:10FF6000FFF7FEBFFFF7FEBFFFF7FEBFFFF7FEBFC5
:10FF7000FFF7FEBFFFF7FEBFFFF7FEBFFFF7FEBFB5
:10FF8000FFF7FEBFFFF7FEBFFFF7FEBFFFF7FEBFA5
:10FF900020020000020001F3FF010001F1FF01F166
:10FFA000FF01F1FF01F1FF01F1FF01F1FF01F1FF9D
:10FFB00001F1FF01F1FF01F1FF01F1F501FD51B880
:10FFC0000C43204163F00427E041300D00206F1006
:10FFD000070101140004040002034142020C220044
:10FFE0000C92031892040C1005050124010404016D
:10FFF000DF90010101071812C904121F0152C20843
:020000040801F1
:1000000052C50852950852C008529308FC02770066
:1000100000D007DB0D2002010203040400020607E2
:020020000809CD
:040000050800FE21D0
:00000001FF
